:1000000004308A00282C0000FF00030E8301A100A9
:100010000A08A0008A010408A2007708A300780853
:10002000A4007908A5007A08A600831383128B1E0A
:100030001B280B192C28220884002308F700240809
:10004000F8002508F9002608FA0020088A00210E89
:100050008300FF0E7F0E09008A110A12E52803179C
:100060003708F8013602031838283608F700442804
:10007000F7010830B800B60DF70D370877020318FE
:10008000F700F80DB80B3B2803130800F701F8013F
:100090000317360803103718F707F70CF80CB718D2
:1000A000F707F70CF80C3719F707F70CF80CB71926
:1000B000F707F70CF80C371AF707F70CF80CB71A14
:1000C000F707F70CF80C371BF707F70CF80CB71B02
:1000D000F707F70CF80C031308003F308400831770
:1000E0000008031981280130F800F701F70B762882
:1000F000F80B75284A30F700F70B7C287F28800B17
:10010000732808000317BD08031D8A2803138810ED
:100110008C2803170313881403173C08F039BE001A
:100120000F300313880503173E08031388040A30B1
:100130000317BF0003136D2008140A300317BF0014
:1001400003136D2008100A300317BF0003136D203E
:1001500003173C0EBE00F030BE05BE050F30031382
:10016000880503173E08031388040A300317BF00ED
:1001700003136D2008140A300317BF0003136D200A
:1001800008100A300317BF0003136D20080003177F
:100190003808BC00BD01031382200317BA013908D7
:1001A0003A020318E3283A08360784008313371805
:1001B00083170008BB00BC000130BD000313822080
:1001C0000317BA0ACF28031308006C0B092A013061
:1001D000EE070318EF0A6E08C83C031D092AEF0852
:1001E000031D092A0030F8001F08C73978049F0052
:1001F0000630F700F70BFA2800001F151F19FE281C
:1002000083161E0883120317B300B7013308B60024
:100210008E30F7003708F8003608F900FA01F808C0
:10022000031D1C297908F800F9010830F702F808C5
:10023000031D1C29F70124290310F81B2329F90D9C
:10024000F80DF7031C29F8137A08B9007908B800EB
:100250007808B7007708B6004B30BD001F30BC00EF
:100260007A30BB007D30BA0036080319A429BE00DD
:100270003A080319A429BE07031845297F30BE0296
:10028000031CA4290319A42949298130BE07031896
:10029000A4293E08F700F801F901FA013708C20065
:1002A000C2173808C1003908C0001830BE00BF01AD
:1002B000401C72293D08FA07031C6429F90A031D32
:1002C0006429F80A0319BF173C08F907031C6B29B6
:1002D000F80A0319BF173B08B800B8173808F80721
:1002E0000318BF17BF0DF80CF90CFA0CC20CC10CA7
:1002F000C00C0310BE0B57290130F7070318A429BF
:10030000F81B8929C20DFA0DF90DF80DF703031931
:10031000A429C21F9A29FA0A031D9A29F90A031D62
:100320009A29F80A031D9A29F80CF90CFA0CF70A15
:100330000319A4293708BF003B08BF06BF1FA22925
:10034000F817A829F813A829F701F801F901FA010B
:100350007A08B9007908B8007808B7007708B600BD
:100360008E30F7003608F7023708F9003808F80031
:10037000F917F7080319C7290310F908031DC32942
:10038000F8080319C729F90CF80CF70BBC29B71F9B
:10039000CE29F809F909F80A0319F90A7808B00012
:1003A0003008B6000A30B70003132F2078080F3941
:1003B0000317B1003108B6000A30B7000313462016
:1003C0007808031730020F39B2003030B104B2049C
:1003D0000C30BC00BD0103138220CC300317BC00DD
:1003E000BD010313822003173108BC000130BD009A
:1003F00003138220CD300317BC00BD0103138220FC
:1004000003173208BC000130BD0003138220EF0146
:10041000EE01730B6B2AF008031D692A8316091479
:1004200083120918642A32300317BF0003136D20AA
:100430008316091483120918642A0317B7015A3066
:10044000B600C030B8001030B9000313C72003173E
:10045000B701E030B600C030B8001030B900031367
:10046000C7200317B7015A30B6008030B8001030EB
:10047000B9000313C72086300317BC00BD01031366
:10048000822031300317BC000130BD0003138220ED
:100490002D300317BC000130BD00031382202D3026
:1004A0000317BC000130BD00031382202D30031759
:1004B000BC000130BD0003138220EC010130F600C6
:1004C00031300317A10003130030F8003230F00080
:1004D0006B2A0130F002740B8A2A740B8A2AEA080C
:1004E000031D842AEB08031D842A06108610F108D8
:1004F000031D812A04308806083088063230F10056
:10050000832A0130F1028A2A0130EA020030031CFA
:100510000130EB02EC08031D282B0317B401B501D1
:10052000F108031DA22AF308031D9B2A04300313BC
:1005300088069E2A03170830031388063230F1001C
:10054000A52A03170130F1020313F008031D262B1F
:100550000130F20272080317B6000A30B700031325
:100560002F2078080F390317B4003408B6000A307A
:10057000B70003134620780872020F390317B5003D
:100580003030B404B504C530BC00BD010313822073
:1005900003173408BC000130BD0003138220C630AD
:1005A0000317BC00BD010313822003173508BC00EC
:1005B0000130BD0003138220F208031D232BF30832
:1005C000031D022B0130EC000317B7014A30B600BF
:1005D000C030B8001030B9000313C7200811013033
:1005E000F300861404300317B600FA30BF0003137B
:1005F0006D200317B60BF52A031386103C30F2006A
:100600008815232B0330EC000130F4002E30EB0072
:10061000E030EA003230F100861406140317B70107
:100620005A30B600C030B8001030B9000313C720EC
:1006300001300317B7001030B600C030B8001030DA
:10064000B9000313C7206430F000282B0130F002FA
:10065000D93081000B118A110A121B28A7018B1BAC
:10066000A7178B1333300317BC00BD01031382207F
:10067000A71B8B17A7018B1BA7178B1332300317F0
:10068000BC00BD0103138220A71B8B17A7018B1B86
:10069000A7178B1306300317BC00BD01031382207C
:1006A000A71B8B17A7018B1BA7178B130C300317E6
:1006B000BC00BD0103138220A71B8B17A7018B1B56
:1006C000A7178B1328300317BC00BD01031382202A
:1006D000A71B8B17A7018B1BA7178B1301300317C1
:1006E000BC00BD0103138220A71B8B17A7018B1B26
:1006F000A7178B130A300317BF0003136D20A71B26
:100700008B178A110A127D2DA7018B1BA7178B133C
:100710000317B7012A30B6008030B8001030B90096
:100720000313C720A71B8B17A7018B1BA7178B13BE
:100730000317B7013A30B600C030B8001030B90026
:100740000313C720A71B8B170130EC000815881175
:1007500008008518BD2BA7018B1BA7178B13323000
:100760000317BF0003136D20A71B8B178518BD2B24
:10077000851CB82B0130F800FB2B0519D12BA701E4
:100780008B1BA7178B1332300317BF0003136D2089
:10079000A71B8B170519D12B051DCC2B0230F80098
:1007A000FB2B8519E52BA7018B1BA7178B13323069
:1007B0000317BF0003136D20A71B8B178519E52BAB
:1007C000851DE02B0330F800FB2B051AF92BA70140
:1007D0008B1BA7178B1332300317BF0003136D2039
:1007E000A71B8B17051AF92B051EF42B0430F800F4
:1007F000FB2B0030F8008A110A12992DA7018B1BE0
:10080000A7178B130317B7015A30B600C030B800D2
:100810001030B9000313C720A71B8B17A7018B1B30
:10082000A7178B130317B701E030B600C030B8002C
:100830001030B9000313C720A71B8B17EC013C3005
:10084000F2006430F0003230F1008A110A120E2FEB
:10085000840183131F308305EB01EA01EC01ED01F4
:10086000EF01EE01F001F101F201F301F401F501F4
:10087000F6013130FB00FC00FD00FE000317A00074
:10088000A100A200A300A400831603131F149F1449
:100890001F159F1107309C008312A801A901453044
:1008A000AA006C30AB006530AC006330AD00743032
:1008B000AE007230AF006F30B0006E30B100693002
:1008C000B2006330B3006130B4002030B500423074
:1008D000B6007330B7004130B8007330B90044300F
:1008E000BA006530BB007330BC006130BD006330BE
:1008F000BE007430BF006930C0007630C100613086
:10090000C2006430C3006130C4002030C500C6009E
:10091000C700B030C8004330C9004130CA0063305E
:10092000CB007430CC006930CD007630CE00613021
:10093000CF006430D0006130D1002030D200D3002D
:10094000D400D500D600D700B030D8004330D9004D
:100950002030DA00DB00DC00DD00DE00DF00E0003C
:10096000E100E200E300E400E500E600E700E80063
:10097000E90043308316A0006130A1006D30A20071
:100980006230A3006930A4006130A5007230A60077
:100990002030A7007030A8006130A9007330AA0091
:1009A000AB007730AC006F30AD007230AE00643019
:1009B000AF004330B0006F30B1006E30B200743021
:1009C000B3007230B4006130B5002E30B600203074
:1009D000B7006130B8006E30B9007430BA006930C9
:1009E000BB006730BC007530BD006130BE002030F8
:1009F000BF004E30C0007530C1006530C200763097
:100A0000C3006130C4002030C5006330C6006F30C1
:100A1000C7006E30C8007430C9007230CA0061303F
:100A2000CB007330CC006530CD006E30CE0061302D
:100A3000CF005030D0006130D1007330D200D300ED
:100A40002E30D4002030D5006330D6006130D7007E
:100A50006D30D8006230D9006930DA006130DB00D7
:100A60006430DC006130DD002030DE00DF00E000BB
:100A7000E100E200E300E400E500E600E7005330B7
:100A8000E8004530E9004730EA005530EB004E30D1
:100A9000EC004430ED004F30EE005330EF002030DA
:100AA000831203179000910092009300533094003A
:100AB0004F3095004E309600413097004E309800F0
:100AC000443099004F309A0020309B009C009D00DC
:100AD0009E009F001F3083160313850000308600A0
:100AE000870088000914891409118312860188017E
:100AF00087010317A50103132E2B842383160108F6
:100B0000C0390738810083128B16C0308B048316DE
:100B10001F109F141F159F151F1383121F179F1758
:100B200083169F1783121F1432308100EF01EE01EC
:100B3000A92B78080317A5002508FB3E03189D2F55
:100B4000053E0313A82F03179D2F730B082E6C0B64
:100B5000AA2D082E03172008333C031CB22D0130A8
:100B6000A007B42D3130A000760BC42D0313A701CC
:100B70008B1BA7178B1386300317BC00BD01031313
:100B80008220A71B8B1703177608023C031DD62D66
:100B90000313A7018B1BA7178B1387300317BC0008
:100BA000BD0103138220A71B8B1703177608033C94
:100BB000031DE82D0313A7018B1BA7178B13883088
:100BC0000317BC00BD0103138220A71B8B1703175B
:100BD0007608043C031DFA2D0313A7018B1BA717EE
:100BE0008B1389300317BC00BD0103138220A71BA0
:100BF0008B1703170313A7018B1BA7178B1303175F
:100C00002008BC000130BD0003138220A71B8B17F6
:100C100003179D2F730B6D2E6C0B0F2E6D2E03176C
:100C20002008313C0318172E0130A002192E343051
:100C3000A000760B292E0313A7018B1BA7178B137C
:100C400086300317BC00BD0103138220A71B8B173E
:100C500003177608023C031D3B2E0313A7018B1BD1
:100C6000A7178B1387300317BC00BD010313822025
:100C7000A71B8B1703177608033C031D4D2E031388
:100C8000A7018B1BA7178B1388300317BC00BD016E
:100C900003138220A71B8B1703177608043C031D40
:100CA0005F2E0313A7018B1BA7178B138930031724
:100CB000BC00BD0103138220A71B8B17031703136E
:100CC000A7018B1BA7178B1303172008BC0001304B
:100CD000BD0003138220A71B8B1703179D2F730BD7
:100CE000DB2E6C0B742EDB2E7608013C0318DB2EFA
:100CF0000130F6027608033C031D9B2E03172308E0
:100D0000A0000313A7018B1BA7178B1389300317B0
:100D1000BC00BD0103138220A71B8B17A7018B1BEF
:100D2000A7178B132D300317BC000130BD00031330
:100D30008220A71B8B177608023C031DBC2E0317CD
:100D40002208A0000313A7018B1BA7178B13883061
:100D50000317BC00BD0103138220A71B8B17A7013B
:100D60008B1BA7178B132D300317BC000130BD0060
:100D700003138220A71B8B17760BDB2E031721088A
:100D8000A0000313A7018B1BA7178B138730031732
:100D9000BC00BD0103138220A71B8B17A7018B1B6F
:100DA000A7178B132D300317BC000130BD000313B0
:100DB0008220A71B8B17EC08031D062FF308031DC9
:100DC000062FA7018B1BA7178B130317B7015A30E8
:100DD000B600C030B8001030B9000313C720A71BFD
:100DE0008B17A7018B1BA7178B130317B7013A307B
:100DF000B600C030B8001030B9000313C720A71BDD
:100E00008B170130EC00F3010815881103179D2F93
:100E10006C0B0E2FF308031D0E2FFE2BEC0803198D
:100E2000132F740B9A2F730B9A2F01307602FC3E0E
:100E300003189A2F043EA02F03172008A1000230A8
:100E4000F6000313A7018B1BA7178B13873003171B
:100E5000BC00BD0103138220A71B8B17A7018B1BAE
:100E6000A7178B1303172008BC000130BD00031324
:100E70008220A71B8B179A2F03172008A20003308C
:100E8000F6000313A7018B1BA7178B1388300317DA
:100E9000BC00BD0103138220A71B8B17A7018B1B6E
:100EA000A7178B1303172008BC000130BD000313E4
:100EB0008220A71B8B179A2F03172008A30004304A
:100EC000F6000313A7018B1BA7178B138930031799
:100ED000BC00BD0103138220A71B8B17A7018B1B2E
:100EE000A7178B1303172008BC000130BD000313A4
:100EF0008220A71B8B179A2F03172008A4007B08BA
:100F00002102031D982F7C082202031D982F7D08C3
:100F10002302031D982F7E082402031D982FF4013D
:100F2000F3010313061086100130EC00842303172D
:100F300003139A2F03179D2F03170313982D630094
:100F40000A148A140A1582071C2F3C2F5C2F7C2F51
:100F50000A148A140A158207A32D082FA52D0A2E1C
:020F60006F2EF2
:02400E00713F00
:00000001FF
;PIC16F877A
;CRC=A7EB  CREATED="27-may-16 18:13"
